:0300000002000EED
:10000B00020053E581B407020118020248758170A2
:10001B0075310075300012026512002A02003A7524
:10002B008901758CFC758A18D2AFD2A9D28C2202A9
:10003B000087C0E0E53075F020A424002533F9D00B
:10004B00E075A000F3053322758C00758A00C2D3CE
:10005B00053175330012003D85D0E012003DD0E034
:10006B00A8E0D0E012003DE812003DE58112003D12
:0C007B00758170743AC0E07400C0E0327F
:030265000202573B
:10008700754308A843E6FF0533E533AC3270020534
:100097003214F5828C8375F020E530120212EFF0EE
:1000A7000543E543B410DCE4F543753450E534C348
:1000B7009470502EA834E6B4011EE54365306018ED
:1000C700E53075F008A42450F87601854330AF3445
:1000D7000534A8077602800A054374082534F534E9
:1000E70080CB75F020E530A485F032F5330533E594
:1000F70033AE327002053214F5828E83E0F5400587
:1001070033E533AE327002053214F5828E83E05444
:10011700E7A9D07A007B001202000533E533AE323F
:100127007002053214F5828E83E0F5410533E5331D
:10013700AE327002053214F5828E83E0F542E54156
:100147007016E5427012AF340534A807E6F541AFE3
:10015700340534A807E6F5420533E533AE327002BD
:10016700053214F5828E83E0F581E581700AE5306A
:10017700C43354E02480F5817543080533E533AE75
:10018700327002053214F5828E83E0A843F60543E8
:0B019700E543B410E6E541C0E0E5429E
:0901A200C0E0E517D2D32280FE73
:0F024800E53075F008A42450F534F8E4F680FE94
:10023600EFD39400400B7E8E7D02DDFEDEFA1F803A
:02024600EF22A5
:1001AB00753450E534C39470502AA834E6701DADF5
:1001BB00340534A8057601AD07AC340534A804A684
:1001CB0005AF06AE340534A806A6072274082534FD
:0501DB00F53480CF2285
:1001E000750801E4F509E50825E0F508F5907FE8D4
:0F01F0001202360509E509C3940840EA7590FF2D
:0101FF0022DD
:10021E00750801E50825E0F50870037508018508E5
:08022E00907F6412023680EBA0
:0E0257007E017FE01201AB7E027F1E0201AB32
:10020000BB010689828A83F0225002F722BBFE01DD
:02021000F322D7
:0C021200A42582F582E5F03583F58322F7
:00000001FF
