:0300000002000EED
:10000B0002008E75816075900075300075314075FA
:10001B003200753300120047120029020026758941
:10002B0001758CFC758A18D2AFD2A9D28C227FA70E
:10003B007EAB7D10DDFEDEFADFF600227E637F00F5
:10004B001200567E6B7F0012005622A831EEF60886
:10005B00EFF6088831053222B290120039020063A4
:10006B00B29112003902006BE533B53203753300E0
:10007B00E533232440F8E6F58208E6F583740005A2
:10008B00337322758C00758A008530A0053015817D
:0B009B0015817473C0E07400C0E032F7
:00000001FF
